{
  "_format": "hh-sol-artifact-1",
  "contractName": "MidwitNFT",
  "sourceName": "contracts/MidwitNFT.sol",
  "abi": [
    {
      "inputs": [
        {
          "internalType": "string",
          "name": "_iq",
          "type": "string"
        }
      ],
      "stateMutability": "payable",
      "type": "constructor"
    },
    {
      "anonymous": false,
      "inputs": [
        {
          "indexed": true,
          "internalType": "address",
          "name": "owner",
          "type": "address"
        },
        {
          "indexed": true,
          "internalType": "address",
          "name": "approved",
          "type": "address"
        },
        {
          "indexed": true,
          "internalType": "uint256",
          "name": "tokenId",
          "type": "uint256"
        }
      ],
      "name": "Approval",
      "type": "event"
    },
    {
      "anonymous": false,
      "inputs": [
        {
          "indexed": true,
          "internalType": "address",
          "name": "owner",
          "type": "address"
        },
        {
          "indexed": true,
          "internalType": "address",
          "name": "operator",
          "type": "address"
        },
        {
          "indexed": false,
          "internalType": "bool",
          "name": "approved",
          "type": "bool"
        }
      ],
      "name": "ApprovalForAll",
      "type": "event"
    },
    {
      "anonymous": false,
      "inputs": [
        {
          "indexed": true,
          "internalType": "address",
          "name": "from",
          "type": "address"
        },
        {
          "indexed": true,
          "internalType": "address",
          "name": "to",
          "type": "address"
        },
        {
          "indexed": true,
          "internalType": "uint256",
          "name": "tokenId",
          "type": "uint256"
        }
      ],
      "name": "Transfer",
      "type": "event"
    },
    {
      "inputs": [
        {
          "internalType": "address",
          "name": "to",
          "type": "address"
        },
        {
          "internalType": "uint256",
          "name": "tokenId",
          "type": "uint256"
        }
      ],
      "name": "approve",
      "outputs": [],
      "stateMutability": "nonpayable",
      "type": "function"
    },
    {
      "inputs": [
        {
          "internalType": "address",
          "name": "owner",
          "type": "address"
        }
      ],
      "name": "balanceOf",
      "outputs": [
        {
          "internalType": "uint256",
          "name": "",
          "type": "uint256"
        }
      ],
      "stateMutability": "view",
      "type": "function"
    },
    {
      "inputs": [
        {
          "internalType": "uint256",
          "name": "score",
          "type": "uint256"
        }
      ],
      "name": "getAddress",
      "outputs": [
        {
          "internalType": "address",
          "name": "",
          "type": "address"
        }
      ],
      "stateMutability": "view",
      "type": "function"
    },
    {
      "inputs": [
        {
          "internalType": "uint256",
          "name": "tokenId",
          "type": "uint256"
        }
      ],
      "name": "getApproved",
      "outputs": [
        {
          "internalType": "address",
          "name": "",
          "type": "address"
        }
      ],
      "stateMutability": "view",
      "type": "function"
    },
    {
      "inputs": [],
      "name": "iq",
      "outputs": [
        {
          "internalType": "string",
          "name": "",
          "type": "string"
        }
      ],
      "stateMutability": "view",
      "type": "function"
    },
    {
      "inputs": [],
      "name": "iqText",
      "outputs": [
        {
          "internalType": "string",
          "name": "",
          "type": "string"
        }
      ],
      "stateMutability": "view",
      "type": "function"
    },
    {
      "inputs": [
        {
          "internalType": "address",
          "name": "owner",
          "type": "address"
        },
        {
          "internalType": "address",
          "name": "operator",
          "type": "address"
        }
      ],
      "name": "isApprovedForAll",
      "outputs": [
        {
          "internalType": "bool",
          "name": "",
          "type": "bool"
        }
      ],
      "stateMutability": "view",
      "type": "function"
    },
    {
      "inputs": [],
      "name": "name",
      "outputs": [
        {
          "internalType": "string",
          "name": "",
          "type": "string"
        }
      ],
      "stateMutability": "view",
      "type": "function"
    },
    {
      "inputs": [
        {
          "internalType": "uint256",
          "name": "tokenId",
          "type": "uint256"
        }
      ],
      "name": "ownerOf",
      "outputs": [
        {
          "internalType": "address",
          "name": "",
          "type": "address"
        }
      ],
      "stateMutability": "view",
      "type": "function"
    },
    {
      "inputs": [],
      "name": "price",
      "outputs": [
        {
          "internalType": "uint256",
          "name": "",
          "type": "uint256"
        }
      ],
      "stateMutability": "pure",
      "type": "function"
    },
    {
      "inputs": [
        {
          "internalType": "uint256",
          "name": "score",
          "type": "uint256"
        }
      ],
      "name": "register",
      "outputs": [],
      "stateMutability": "payable",
      "type": "function"
    },
    {
      "inputs": [
        {
          "internalType": "address",
          "name": "from",
          "type": "address"
        },
        {
          "internalType": "address",
          "name": "to",
          "type": "address"
        },
        {
          "internalType": "uint256",
          "name": "tokenId",
          "type": "uint256"
        }
      ],
      "name": "safeTransferFrom",
      "outputs": [],
      "stateMutability": "nonpayable",
      "type": "function"
    },
    {
      "inputs": [
        {
          "internalType": "address",
          "name": "from",
          "type": "address"
        },
        {
          "internalType": "address",
          "name": "to",
          "type": "address"
        },
        {
          "internalType": "uint256",
          "name": "tokenId",
          "type": "uint256"
        },
        {
          "internalType": "bytes",
          "name": "_data",
          "type": "bytes"
        }
      ],
      "name": "safeTransferFrom",
      "outputs": [],
      "stateMutability": "nonpayable",
      "type": "function"
    },
    {
      "inputs": [
        {
          "internalType": "uint256",
          "name": "",
          "type": "uint256"
        }
      ],
      "name": "scores",
      "outputs": [
        {
          "internalType": "address",
          "name": "",
          "type": "address"
        }
      ],
      "stateMutability": "view",
      "type": "function"
    },
    {
      "inputs": [
        {
          "internalType": "address",
          "name": "operator",
          "type": "address"
        },
        {
          "internalType": "bool",
          "name": "approved",
          "type": "bool"
        }
      ],
      "name": "setApprovalForAll",
      "outputs": [],
      "stateMutability": "nonpayable",
      "type": "function"
    },
    {
      "inputs": [
        {
          "internalType": "bytes4",
          "name": "interfaceId",
          "type": "bytes4"
        }
      ],
      "name": "supportsInterface",
      "outputs": [
        {
          "internalType": "bool",
          "name": "",
          "type": "bool"
        }
      ],
      "stateMutability": "view",
      "type": "function"
    },
    {
      "inputs": [],
      "name": "symbol",
      "outputs": [
        {
          "internalType": "string",
          "name": "",
          "type": "string"
        }
      ],
      "stateMutability": "view",
      "type": "function"
    },
    {
      "inputs": [
        {
          "internalType": "uint256",
          "name": "tokenId",
          "type": "uint256"
        }
      ],
      "name": "tokenURI",
      "outputs": [
        {
          "internalType": "string",
          "name": "",
          "type": "string"
        }
      ],
      "stateMutability": "view",
      "type": "function"
    },
    {
      "inputs": [
        {
          "internalType": "address",
          "name": "from",
          "type": "address"
        },
        {
          "internalType": "address",
          "name": "to",
          "type": "address"
        },
        {
          "internalType": "uint256",
          "name": "tokenId",
          "type": "uint256"
        }
      ],
      "name": "transferFrom",
      "outputs": [],
      "stateMutability": "nonpayable",
      "type": "function"
    }
  ],
  "bytecode": "0x6080604052604051806103e001604052806103b4815260200162003ec66103b49139600a9080519060200190620000389291906200019e565b5060405180608001604052806044815260200162003e8260449139600b90805190602001906200006a9291906200019e565b506040518060400160405280600d81526020017f3c2f746578743e3c2f7376673e00000000000000000000000000000000000000815250600c9080519060200190620000b89291906200019e565b506040516200427a3803806200427a8339818101604052810190620000de9190620003eb565b6040518060400160405280600b81526020017f4d6964776974204e4654730000000000000000000000000000000000000000008152506040518060400160405280600381526020017f4d494400000000000000000000000000000000000000000000000000000000008152508160009080519060200190620001629291906200019e565b5080600190805190602001906200017b9291906200019e565b5050508060089080519060200190620001969291906200019e565b5050620004a1565b828054620001ac906200046b565b90600052602060002090601f016020900481019282620001d057600085556200021c565b82601f10620001eb57805160ff19168380011785556200021c565b828001600101855582156200021c579182015b828111156200021b578251825591602001919060010190620001fe565b5b5090506200022b91906200022f565b5090565b5b808211156200024a57600081600090555060010162000230565b5090565b6000604051905090565b600080fd5b600080fd5b600080fd5b600080fd5b6000601f19601f8301169050919050565b7f4e487b7100000000000000000000000000000000000000000000000000000000600052604160045260246000fd5b620002b7826200026c565b810181811067ffffffffffffffff82111715620002d957620002d86200027d565b5b80604052505050565b6000620002ee6200024e565b9050620002fc8282620002ac565b919050565b600067ffffffffffffffff8211156200031f576200031e6200027d565b5b6200032a826200026c565b9050602081019050919050565b60005b83811015620003575780820151818401526020810190506200033a565b8381111562000367576000848401525b50505050565b6000620003846200037e8462000301565b620002e2565b905082815260208101848484011115620003a357620003a262000267565b5b620003b084828562000337565b509392505050565b600082601f830112620003d057620003cf62000262565b5b8151620003e28482602086016200036d565b91505092915050565b60006020828403121562000404576200040362000258565b5b600082015167ffffffffffffffff8111156200042557620004246200025d565b5b6200043384828501620003b8565b91505092915050565b7f4e487b7100000000000000000000000000000000000000000000000000000000600052602260045260246000fd5b600060028204905060018216806200048457607f821691505b602082108114156200049b576200049a6200043c565b5b50919050565b6139d180620004b16000396000f3fe6080604052600436106101145760003560e01c8063700f56b4116100a0578063b88d4fde11610064578063b88d4fde146103c5578063b93f9b0a146103ee578063c87b56dd1461042b578063e985e9c514610468578063f207564e146104a557610114565b8063700f56b4146102de57806370a082311461030957806395d89b4114610346578063a035b1fe14610371578063a22cb4651461039c57610114565b806323b872dd116100e757806323b872dd146101e75780632ee691a31461021057806342842e0e1461024d578063487bac0c146102765780636352211e146102a157610114565b806301ffc9a71461011957806306fdde0314610156578063081812fc14610181578063095ea7b3146101be575b600080fd5b34801561012557600080fd5b50610140600480360381019061013b919061232e565b6104c1565b60405161014d9190612376565b60405180910390f35b34801561016257600080fd5b5061016b6105a3565b604051610178919061242a565b60405180910390f35b34801561018d57600080fd5b506101a860048036038101906101a39190612482565b610635565b6040516101b591906124f0565b60405180910390f35b3480156101ca57600080fd5b506101e560048036038101906101e09190612537565b6106ba565b005b3480156101f357600080fd5b5061020e60048036038101906102099190612577565b6107d2565b005b34801561021c57600080fd5b5061023760048036038101906102329190612482565b610832565b60405161024491906124f0565b60405180910390f35b34801561025957600080fd5b50610274600480360381019061026f9190612577565b610865565b005b34801561028257600080fd5b5061028b610885565b604051610298919061242a565b60405180910390f35b3480156102ad57600080fd5b506102c860048036038101906102c39190612482565b610913565b6040516102d591906124f0565b60405180910390f35b3480156102ea57600080fd5b506102f36109c5565b604051610300919061242a565b60405180910390f35b34801561031557600080fd5b50610330600480360381019061032b91906125ca565b610a53565b60405161033d9190612606565b60405180910390f35b34801561035257600080fd5b5061035b610b0b565b604051610368919061242a565b60405180910390f35b34801561037d57600080fd5b50610386610b9d565b6040516103939190612606565b60405180910390f35b3480156103a857600080fd5b506103c360048036038101906103be919061264d565b610bad565b005b3480156103d157600080fd5b506103ec60048036038101906103e791906127c2565b610bc3565b005b3480156103fa57600080fd5b5061041560048036038101906104109190612482565b610c25565b60405161042291906124f0565b60405180910390f35b34801561043757600080fd5b50610452600480360381019061044d9190612482565b610ccd565b60405161045f919061242a565b60405180910390f35b34801561047457600080fd5b5061048f600480360381019061048a9190612845565b610e1f565b60405161049c9190612376565b60405180910390f35b6104bf60048036038101906104ba9190612482565b610eb3565b005b60007f80ac58cd000000000000000000000000000000000000000000000000000000007bffffffffffffffffffffffffffffffffffffffffffffffffffffffff1916827bffffffffffffffffffffffffffffffffffffffffffffffffffffffff1916148061058c57507f5b5e139f000000000000000000000000000000000000000000000000000000007bffffffffffffffffffffffffffffffffffffffffffffffffffffffff1916827bffffffffffffffffffffffffffffffffffffffffffffffffffffffff1916145b8061059c575061059b826111c5565b5b9050919050565b6060600080546105b2906128b4565b80601f01602080910402602001604051908101604052809291908181526020018280546105de906128b4565b801561062b5780601f106106005761010080835404028352916020019161062b565b820191906000526020600020905b81548152906001019060200180831161060e57829003601f168201915b5050505050905090565b60006106408261122f565b61067f576040517f08c379a000000000000000000000000000000000000000000000000000000000815260040161067690612958565b60405180910390fd5b6004600083815260200190815260200160002060009054906101000a900473ffffffffffffffffffffffffffffffffffffffff169050919050565b60006106c582610913565b90508073ffffffffffffffffffffffffffffffffffffffff168373ffffffffffffffffffffffffffffffffffffffff161415610736576040517f08c379a000000000000000000000000000000000000000000000000000000000815260040161072d906129ea565b60405180910390fd5b8073ffffffffffffffffffffffffffffffffffffffff1661075561129b565b73ffffffffffffffffffffffffffffffffffffffff16148061078457506107838161077e61129b565b610e1f565b5b6107c3576040517f08c379a00000000000000000000000000000000000000000000000000000000081526004016107ba90612a7c565b60405180910390fd5b6107cd83836112a3565b505050565b6107e36107dd61129b565b8261135c565b610822576040517f08c379a000000000000000000000000000000000000000000000000000000000815260040161081990612b0e565b60405180910390fd5b61082d83838361143a565b505050565b600d6020528060005260406000206000915054906101000a900473ffffffffffffffffffffffffffffffffffffffff1681565b61088083838360405180602001604052806000815250610bc3565b505050565b60088054610892906128b4565b80601f01602080910402602001604051908101604052809291908181526020018280546108be906128b4565b801561090b5780601f106108e05761010080835404028352916020019161090b565b820191906000526020600020905b8154815290600101906020018083116108ee57829003601f168201915b505050505081565b6000806002600084815260200190815260200160002060009054906101000a900473ffffffffffffffffffffffffffffffffffffffff169050600073ffffffffffffffffffffffffffffffffffffffff168173ffffffffffffffffffffffffffffffffffffffff1614156109bc576040517f08c379a00000000000000000000000000000000000000000000000000000000081526004016109b390612ba0565b60405180910390fd5b80915050919050565b600980546109d2906128b4565b80601f01602080910402602001604051908101604052809291908181526020018280546109fe906128b4565b8015610a4b5780601f10610a2057610100808354040283529160200191610a4b565b820191906000526020600020905b815481529060010190602001808311610a2e57829003601f168201915b505050505081565b60008073ffffffffffffffffffffffffffffffffffffffff168273ffffffffffffffffffffffffffffffffffffffff161415610ac4576040517f08c379a0000000000000000000000000000000000000000000000000000000008152600401610abb90612c32565b60405180910390fd5b600360008373ffffffffffffffffffffffffffffffffffffffff1673ffffffffffffffffffffffffffffffffffffffff168152602001908152602001600020549050919050565b606060018054610b1a906128b4565b80601f0160208091040260200160405190810160405280929190818152602001828054610b46906128b4565b8015610b935780601f10610b6857610100808354040283529160200191610b93565b820191906000526020600020905b815481529060010190602001808311610b7657829003601f168201915b5050505050905090565b600067016345785d8a0000905090565b610bbf610bb861129b565b83836116a1565b5050565b610bd4610bce61129b565b8361135c565b610c13576040517f08c379a0000000000000000000000000000000000000000000000000000000008152600401610c0a90612b0e565b60405180910390fd5b610c1f8484848461180e565b50505050565b60003373ffffffffffffffffffffffffffffffffffffffff16600d600084815260200190815260200160002060009054906101000a900473ffffffffffffffffffffffffffffffffffffffff1673ffffffffffffffffffffffffffffffffffffffff1614610c9257600080fd5b600d600083815260200190815260200160002060009054906101000a900473ffffffffffffffffffffffffffffffffffffffff169050919050565b6060610cd88261122f565b610d17576040517f08c379a0000000000000000000000000000000000000000000000000000000008152600401610d0e90612cc4565b60405180910390fd5b6000600660008481526020019081526020016000208054610d37906128b4565b80601f0160208091040260200160405190810160405280929190818152602001828054610d63906128b4565b8015610db05780601f10610d8557610100808354040283529160200191610db0565b820191906000526020600020905b815481529060010190602001808311610d9357829003601f168201915b505050505090506000610dc161186a565b9050600081511415610dd7578192505050610e1a565b600082511115610e0c578082604051602001610df4929190612d20565b60405160208183030381529060405292505050610e1a565b610e1584611881565b925050505b919050565b6000600560008473ffffffffffffffffffffffffffffffffffffffff1673ffffffffffffffffffffffffffffffffffffffff16815260200190815260200160002060008373ffffffffffffffffffffffffffffffffffffffff1673ffffffffffffffffffffffffffffffffffffffff16815260200190815260200160002060009054906101000a900460ff16905092915050565b6000610ebd610b9d565b905080341015610f02576040517f08c379a0000000000000000000000000000000000000000000000000000000008152600401610ef990612d90565b60405180910390fd5b600a821015610f3f576040518060600160405280602881526020016139346028913960099080519060200190610f3992919061221f565b50610fca565b6012821015610f99576040518060400160405280601781526020017f596f75277265206176657261676520617420626573742e00000000000000000081525060099080519060200190610f9392919061221f565b50610fc9565b6040518060600160405280602c8152602001613908602c913960099080519060200190610fc792919061221f565b505b5b60006014606484610fdb9190612ddf565b610fe59190612e68565b905060006046606483610ff89190612ddf565b6110029190612e68565b9050600060086040516020016110189190612f2d565b60405160208183030381529060405290506000600a61103684611928565b600b6009600c604051602001611050959493929190612f44565b6040516020818303038152906040529050600061106d6007611a89565b905060006110a38461107e85611a97565b60405160200161108f9291906130e5565b604051602081830303815290604052611a97565b90506000816040516020016110b89190613176565b60405160208183030381529060405290506110ea60405180606001604052806039815260200161389660399139611c2f565b6111296040518060400160405280600e81526020017f46696e616c20746f6b656e55524900000000000000000000000000000000000081525082611cc8565b61114a6040518060600160405280603981526020016138cf60399139611c2f565b6111543384611d64565b61115e8382611d82565b33600d60008b815260200190815260200160002060006101000a81548173ffffffffffffffffffffffffffffffffffffffff021916908373ffffffffffffffffffffffffffffffffffffffff1602179055506111ba6007611df6565b505050505050505050565b60007f01ffc9a7000000000000000000000000000000000000000000000000000000007bffffffffffffffffffffffffffffffffffffffffffffffffffffffff1916827bffffffffffffffffffffffffffffffffffffffffffffffffffffffff1916149050919050565b60008073ffffffffffffffffffffffffffffffffffffffff166002600084815260200190815260200160002060009054906101000a900473ffffffffffffffffffffffffffffffffffffffff1673ffffffffffffffffffffffffffffffffffffffff1614159050919050565b600033905090565b816004600083815260200190815260200160002060006101000a81548173ffffffffffffffffffffffffffffffffffffffff021916908373ffffffffffffffffffffffffffffffffffffffff160217905550808273ffffffffffffffffffffffffffffffffffffffff1661131683610913565b73ffffffffffffffffffffffffffffffffffffffff167f8c5be1e5ebec7d5bd14f71427d1e84f3dd0314c0f7b2291e5b200ac8c7c3b92560405160405180910390a45050565b60006113678261122f565b6113a6576040517f08c379a000000000000000000000000000000000000000000000000000000000815260040161139d9061320a565b60405180910390fd5b60006113b183610913565b90508073ffffffffffffffffffffffffffffffffffffffff168473ffffffffffffffffffffffffffffffffffffffff1614806113f357506113f28185610e1f565b5b8061143157508373ffffffffffffffffffffffffffffffffffffffff1661141984610635565b73ffffffffffffffffffffffffffffffffffffffff16145b91505092915050565b8273ffffffffffffffffffffffffffffffffffffffff1661145a82610913565b73ffffffffffffffffffffffffffffffffffffffff16146114b0576040517f08c379a00000000000000000000000000000000000000000000000000000000081526004016114a79061329c565b60405180910390fd5b600073ffffffffffffffffffffffffffffffffffffffff168273ffffffffffffffffffffffffffffffffffffffff161415611520576040517f08c379a00000000000000000000000000000000000000000000000000000000081526004016115179061332e565b60405180910390fd5b61152b838383611e0c565b6115366000826112a3565b6001600360008573ffffffffffffffffffffffffffffffffffffffff1673ffffffffffffffffffffffffffffffffffffffff1681526020019081526020016000206000828254611586919061334e565b925050819055506001600360008473ffffffffffffffffffffffffffffffffffffffff1673ffffffffffffffffffffffffffffffffffffffff16815260200190815260200160002060008282546115dd9190613382565b92505081905550816002600083815260200190815260200160002060006101000a81548173ffffffffffffffffffffffffffffffffffffffff021916908373ffffffffffffffffffffffffffffffffffffffff160217905550808273ffffffffffffffffffffffffffffffffffffffff168473ffffffffffffffffffffffffffffffffffffffff167fddf252ad1be2c89b69c2b068fc378daa952ba7f163c4a11628f55a4df523b3ef60405160405180910390a461169c838383611e11565b505050565b8173ffffffffffffffffffffffffffffffffffffffff168373ffffffffffffffffffffffffffffffffffffffff161415611710576040517f08c379a000000000000000000000000000000000000000000000000000000000815260040161170790613424565b60405180910390fd5b80600560008573ffffffffffffffffffffffffffffffffffffffff1673ffffffffffffffffffffffffffffffffffffffff16815260200190815260200160002060008473ffffffffffffffffffffffffffffffffffffffff1673ffffffffffffffffffffffffffffffffffffffff16815260200190815260200160002060006101000a81548160ff0219169083151502179055508173ffffffffffffffffffffffffffffffffffffffff168373ffffffffffffffffffffffffffffffffffffffff167f17307eab39ab6107e8899845ad3d59bd9653f200f220920489ca2b5937696c31836040516118019190612376565b60405180910390a3505050565b61181984848461143a565b61182584848484611e16565b611864576040517f08c379a000000000000000000000000000000000000000000000000000000000815260040161185b906134b6565b60405180910390fd5b50505050565b606060405180602001604052806000815250905090565b606061188c8261122f565b6118cb576040517f08c379a00000000000000000000000000000000000000000000000000000000081526004016118c290613548565b60405180910390fd5b60006118d561186a565b905060008151116118f55760405180602001604052806000815250611920565b806118ff84611928565b604051602001611910929190612d20565b6040516020818303038152906040525b915050919050565b60606000821415611970576040518060400160405280600181526020017f30000000000000000000000000000000000000000000000000000000000000008152509050611a84565b600082905060005b600082146119a257808061198b90613568565b915050600a8261199b9190612e68565b9150611978565b60008167ffffffffffffffff8111156119be576119bd612697565b5b6040519080825280601f01601f1916602001820160405280156119f05781602001600182028036833780820191505090505b5090505b60008514611a7d57600182611a09919061334e565b9150600a85611a1891906135b1565b6030611a249190613382565b60f81b818381518110611a3a57611a396135e2565b5b60200101907effffffffffffffffffffffffffffffffffffffffffffffffffffffffffffff1916908160001a905350600a85611a769190612e68565b94506119f4565b8093505050505b919050565b600081600001549050919050565b60606000825190506000811415611ac05760405180602001604052806000815250915050611c2a565b60006003600283611ad19190613382565b611adb9190612e68565b6004611ae79190612ddf565b90506000602082611af89190613382565b67ffffffffffffffff811115611b1157611b10612697565b5b6040519080825280601f01601f191660200182016040528015611b435781602001600182028036833780820191505090505b509050600060405180606001604052806040815260200161395c604091399050600181016020830160005b86811015611be75760038101905062ffffff818a015116603f8160121c168401518060081b905060ff603f83600c1c1686015116810190508060081b905060ff603f8360061c1686015116810190508060081b905060ff603f831686015116810190508060e01b90508084526004840193505050611b6e565b506003860660018114611c015760028114611c1157611c1c565b613d3d60f01b6002830352611c1c565b603d60f81b60018303525b508484525050819450505050505b919050565b611cc581604051602401611c43919061242a565b6040516020818303038152906040527f41304fac000000000000000000000000000000000000000000000000000000007bffffffffffffffffffffffffffffffffffffffffffffffffffffffff19166020820180517bffffffffffffffffffffffffffffffffffffffffffffffffffffffff8381831617835250505050611f9e565b50565b611d608282604051602401611cde929190613611565b6040516020818303038152906040527f4b5c4277000000000000000000000000000000000000000000000000000000007bffffffffffffffffffffffffffffffffffffffffffffffffffffffff19166020820180517bffffffffffffffffffffffffffffffffffffffffffffffffffffffff8381831617835250505050611f9e565b5050565b611d7e828260405180602001604052806000815250611fc7565b5050565b611d8b8261122f565b611dca576040517f08c379a0000000000000000000000000000000000000000000000000000000008152600401611dc1906136ba565b60405180910390fd5b80600660008481526020019081526020016000209080519060200190611df192919061221f565b505050565b6001816000016000828254019250508190555050565b505050565b505050565b6000611e378473ffffffffffffffffffffffffffffffffffffffff16612022565b15611f91578373ffffffffffffffffffffffffffffffffffffffff1663150b7a02611e6061129b565b8786866040518563ffffffff1660e01b8152600401611e82949392919061372f565b6020604051808303816000875af1925050508015611ebe57506040513d601f19601f82011682018060405250810190611ebb9190613790565b60015b611f41573d8060008114611eee576040519150601f19603f3d011682016040523d82523d6000602084013e611ef3565b606091505b50600081511415611f39576040517f08c379a0000000000000000000000000000000000000000000000000000000008152600401611f30906134b6565b60405180910390fd5b805181602001fd5b63150b7a0260e01b7bffffffffffffffffffffffffffffffffffffffffffffffffffffffff1916817bffffffffffffffffffffffffffffffffffffffffffffffffffffffff191614915050611f96565b600190505b949350505050565b60008151905060006a636f6e736f6c652e6c6f679050602083016000808483855afa5050505050565b611fd18383612045565b611fde6000848484611e16565b61201d576040517f08c379a0000000000000000000000000000000000000000000000000000000008152600401612014906134b6565b60405180910390fd5b505050565b6000808273ffffffffffffffffffffffffffffffffffffffff163b119050919050565b600073ffffffffffffffffffffffffffffffffffffffff168273ffffffffffffffffffffffffffffffffffffffff1614156120b5576040517f08c379a00000000000000000000000000000000000000000000000000000000081526004016120ac90613809565b60405180910390fd5b6120be8161122f565b156120fe576040517f08c379a00000000000000000000000000000000000000000000000000000000081526004016120f590613875565b60405180910390fd5b61210a60008383611e0c565b6001600360008473ffffffffffffffffffffffffffffffffffffffff1673ffffffffffffffffffffffffffffffffffffffff168152602001908152602001600020600082825461215a9190613382565b92505081905550816002600083815260200190815260200160002060006101000a81548173ffffffffffffffffffffffffffffffffffffffff021916908373ffffffffffffffffffffffffffffffffffffffff160217905550808273ffffffffffffffffffffffffffffffffffffffff16600073ffffffffffffffffffffffffffffffffffffffff167fddf252ad1be2c89b69c2b068fc378daa952ba7f163c4a11628f55a4df523b3ef60405160405180910390a461221b60008383611e11565b5050565b82805461222b906128b4565b90600052602060002090601f01602090048101928261224d5760008555612294565b82601f1061226657805160ff1916838001178555612294565b82800160010185558215612294579182015b82811115612293578251825591602001919060010190612278565b5b5090506122a191906122a5565b5090565b5b808211156122be5760008160009055506001016122a6565b5090565b6000604051905090565b600080fd5b600080fd5b60007fffffffff0000000000000000000000000000000000000000000000000000000082169050919050565b61230b816122d6565b811461231657600080fd5b50565b60008135905061232881612302565b92915050565b600060208284031215612344576123436122cc565b5b600061235284828501612319565b91505092915050565b60008115159050919050565b6123708161235b565b82525050565b600060208201905061238b6000830184612367565b92915050565b600081519050919050565b600082825260208201905092915050565b60005b838110156123cb5780820151818401526020810190506123b0565b838111156123da576000848401525b50505050565b6000601f19601f8301169050919050565b60006123fc82612391565b612406818561239c565b93506124168185602086016123ad565b61241f816123e0565b840191505092915050565b6000602082019050818103600083015261244481846123f1565b905092915050565b6000819050919050565b61245f8161244c565b811461246a57600080fd5b50565b60008135905061247c81612456565b92915050565b600060208284031215612498576124976122cc565b5b60006124a68482850161246d565b91505092915050565b600073ffffffffffffffffffffffffffffffffffffffff82169050919050565b60006124da826124af565b9050919050565b6124ea816124cf565b82525050565b600060208201905061250560008301846124e1565b92915050565b612514816124cf565b811461251f57600080fd5b50565b6000813590506125318161250b565b92915050565b6000806040838503121561254e5761254d6122cc565b5b600061255c85828601612522565b925050602061256d8582860161246d565b9150509250929050565b6000806000606084860312156125905761258f6122cc565b5b600061259e86828701612522565b93505060206125af86828701612522565b92505060406125c08682870161246d565b9150509250925092565b6000602082840312156125e0576125df6122cc565b5b60006125ee84828501612522565b91505092915050565b6126008161244c565b82525050565b600060208201905061261b60008301846125f7565b92915050565b61262a8161235b565b811461263557600080fd5b50565b60008135905061264781612621565b92915050565b60008060408385031215612664576126636122cc565b5b600061267285828601612522565b925050602061268385828601612638565b9150509250929050565b600080fd5b600080fd5b7f4e487b7100000000000000000000000000000000000000000000000000000000600052604160045260246000fd5b6126cf826123e0565b810181811067ffffffffffffffff821117156126ee576126ed612697565b5b80604052505050565b60006127016122c2565b905061270d82826126c6565b919050565b600067ffffffffffffffff82111561272d5761272c612697565b5b612736826123e0565b9050602081019050919050565b82818337600083830152505050565b600061276561276084612712565b6126f7565b90508281526020810184848401111561278157612780612692565b5b61278c848285612743565b509392505050565b600082601f8301126127a9576127a861268d565b5b81356127b9848260208601612752565b91505092915050565b600080600080608085870312156127dc576127db6122cc565b5b60006127ea87828801612522565b94505060206127fb87828801612522565b935050604061280c8782880161246d565b925050606085013567ffffffffffffffff81111561282d5761282c6122d1565b5b61283987828801612794565b91505092959194509250565b6000806040838503121561285c5761285b6122cc565b5b600061286a85828601612522565b925050602061287b85828601612522565b9150509250929050565b7f4e487b7100000000000000000000000000000000000000000000000000000000600052602260045260246000fd5b600060028204905060018216806128cc57607f821691505b602082108114156128e0576128df612885565b5b50919050565b7f4552433732313a20617070726f76656420717565727920666f72206e6f6e657860008201527f697374656e7420746f6b656e0000000000000000000000000000000000000000602082015250565b6000612942602c8361239c565b915061294d826128e6565b604082019050919050565b6000602082019050818103600083015261297181612935565b9050919050565b7f4552433732313a20617070726f76616c20746f2063757272656e74206f776e6560008201527f7200000000000000000000000000000000000000000000000000000000000000602082015250565b60006129d460218361239c565b91506129df82612978565b604082019050919050565b60006020820190508181036000830152612a03816129c7565b9050919050565b7f4552433732313a20617070726f76652063616c6c6572206973206e6f74206f7760008201527f6e6572206e6f7220617070726f76656420666f7220616c6c0000000000000000602082015250565b6000612a6660388361239c565b9150612a7182612a0a565b604082019050919050565b60006020820190508181036000830152612a9581612a59565b9050919050565b7f4552433732313a207472616e736665722063616c6c6572206973206e6f74206f60008201527f776e6572206e6f7220617070726f766564000000000000000000000000000000602082015250565b6000612af860318361239c565b9150612b0382612a9c565b604082019050919050565b60006020820190508181036000830152612b2781612aeb565b9050919050565b7f4552433732313a206f776e657220717565727920666f72206e6f6e657869737460008201527f656e7420746f6b656e0000000000000000000000000000000000000000000000602082015250565b6000612b8a60298361239c565b9150612b9582612b2e565b604082019050919050565b60006020820190508181036000830152612bb981612b7d565b9050919050565b7f4552433732313a2062616c616e636520717565727920666f7220746865207a6560008201527f726f206164647265737300000000000000000000000000000000000000000000602082015250565b6000612c1c602a8361239c565b9150612c2782612bc0565b604082019050919050565b60006020820190508181036000830152612c4b81612c0f565b9050919050565b7f45524337323155524953746f726167653a2055524920717565727920666f722060008201527f6e6f6e6578697374656e7420746f6b656e000000000000000000000000000000602082015250565b6000612cae60318361239c565b9150612cb982612c52565b604082019050919050565b60006020820190508181036000830152612cdd81612ca1565b9050919050565b600081905092915050565b6000612cfa82612391565b612d048185612ce4565b9350612d148185602086016123ad565b80840191505092915050565b6000612d2c8285612cef565b9150612d388284612cef565b91508190509392505050565b7f4e6f7420656e6f756768204d6174696320706169640000000000000000000000600082015250565b6000612d7a60158361239c565b9150612d8582612d44565b602082019050919050565b60006020820190508181036000830152612da981612d6d565b9050919050565b7f4e487b7100000000000000000000000000000000000000000000000000000000600052601160045260246000fd5b6000612dea8261244c565b9150612df58361244c565b9250817fffffffffffffffffffffffffffffffffffffffffffffffffffffffffffffffff0483118215151615612e2e57612e2d612db0565b5b828202905092915050565b7f4e487b7100000000000000000000000000000000000000000000000000000000600052601260045260246000fd5b6000612e738261244c565b9150612e7e8361244c565b925082612e8e57612e8d612e39565b5b828204905092915050565b60008190508160005260206000209050919050565b60008154612ebb816128b4565b612ec58186612ce4565b94506001821660008114612ee05760018114612ef157612f24565b60ff19831686528186019350612f24565b612efa85612e99565b60005b83811015612f1c57815481890152600182019150602081019050612efd565b838801955050505b50505092915050565b6000612f398284612eae565b915081905092915050565b6000612f508288612eae565b9150612f5c8287612cef565b9150612f688286612eae565b9150612f748285612eae565b9150612f808284612eae565b91508190509695505050505050565b7f7b226e616d65223a202200000000000000000000000000000000000000000000600082015250565b6000612fc5600a83612ce4565b9150612fd082612f8f565b600a82019050919050565b7f222c20226465736372697074696f6e223a20224265636175736520746865206e60008201527f61747572616c2070726f6772657373696f6e206f66207765623320697320746f60208201527f206d696e7420796f757220697120617320616e206e66742e222c2022696d616760408201527f65223a2022646174613a696d6167652f7376672b786d6c3b6261736536342c00606082015250565b6000613083607f83612ce4565b915061308e82612fdb565b607f82019050919050565b7f227d000000000000000000000000000000000000000000000000000000000000600082015250565b60006130cf600283612ce4565b91506130da82613099565b600282019050919050565b60006130f082612fb8565b91506130fc8285612cef565b915061310782613076565b91506131138284612cef565b915061311e826130c2565b91508190509392505050565b7f646174613a6170706c69636174696f6e2f6a736f6e3b6261736536342c000000600082015250565b6000613160601d83612ce4565b915061316b8261312a565b601d82019050919050565b600061318182613153565b915061318d8284612cef565b915081905092915050565b7f4552433732313a206f70657261746f7220717565727920666f72206e6f6e657860008201527f697374656e7420746f6b656e0000000000000000000000000000000000000000602082015250565b60006131f4602c8361239c565b91506131ff82613198565b604082019050919050565b60006020820190508181036000830152613223816131e7565b9050919050565b7f4552433732313a207472616e736665722066726f6d20696e636f72726563742060008201527f6f776e6572000000000000000000000000000000000000000000000000000000602082015250565b600061328660258361239c565b91506132918261322a565b604082019050919050565b600060208201905081810360008301526132b581613279565b9050919050565b7f4552433732313a207472616e7366657220746f20746865207a65726f2061646460008201527f7265737300000000000000000000000000000000000000000000000000000000602082015250565b600061331860248361239c565b9150613323826132bc565b604082019050919050565b600060208201905081810360008301526133478161330b565b9050919050565b60006133598261244c565b91506133648361244c565b92508282101561337757613376612db0565b5b828203905092915050565b600061338d8261244c565b91506133988361244c565b9250827fffffffffffffffffffffffffffffffffffffffffffffffffffffffffffffffff038211156133cd576133cc612db0565b5b828201905092915050565b7f4552433732313a20617070726f766520746f2063616c6c657200000000000000600082015250565b600061340e60198361239c565b9150613419826133d8565b602082019050919050565b6000602082019050818103600083015261343d81613401565b9050919050565b7f4552433732313a207472616e7366657220746f206e6f6e20455243373231526560008201527f63656976657220696d706c656d656e7465720000000000000000000000000000602082015250565b60006134a060328361239c565b91506134ab82613444565b604082019050919050565b600060208201905081810360008301526134cf81613493565b9050919050565b7f4552433732314d657461646174613a2055524920717565727920666f72206e6f60008201527f6e6578697374656e7420746f6b656e0000000000000000000000000000000000602082015250565b6000613532602f8361239c565b915061353d826134d6565b604082019050919050565b6000602082019050818103600083015261356181613525565b9050919050565b60006135738261244c565b91507fffffffffffffffffffffffffffffffffffffffffffffffffffffffffffffffff8214156135a6576135a5612db0565b5b600182019050919050565b60006135bc8261244c565b91506135c78361244c565b9250826135d7576135d6612e39565b5b828206905092915050565b7f4e487b7100000000000000000000000000000000000000000000000000000000600052603260045260246000fd5b6000604082019050818103600083015261362b81856123f1565b9050818103602083015261363f81846123f1565b90509392505050565b7f45524337323155524953746f726167653a2055524920736574206f66206e6f6e60008201527f6578697374656e7420746f6b656e000000000000000000000000000000000000602082015250565b60006136a4602e8361239c565b91506136af82613648565b604082019050919050565b600060208201905081810360008301526136d381613697565b9050919050565b600081519050919050565b600082825260208201905092915050565b6000613701826136da565b61370b81856136e5565b935061371b8185602086016123ad565b613724816123e0565b840191505092915050565b600060808201905061374460008301876124e1565b61375160208301866124e1565b61375e60408301856125f7565b818103606083015261377081846136f6565b905095945050505050565b60008151905061378a81612302565b92915050565b6000602082840312156137a6576137a56122cc565b5b60006137b48482850161377b565b91505092915050565b7f4552433732313a206d696e7420746f20746865207a65726f2061646472657373600082015250565b60006137f360208361239c565b91506137fe826137bd565b602082019050919050565b60006020820190508181036000830152613822816137e6565b9050919050565b7f4552433732313a20746f6b656e20616c7265616479206d696e74656400000000600082015250565b600061385f601c8361239c565b915061386a82613829565b602082019050919050565b6000602082019050818103600083015261388e81613852565b905091905056fe0a2d2d2d2d2d2d2d2d2d2d2d2d2d2d2d2d2d2d2d2d2d2d2d2d2d2d2d2d2d2d2d2d2d2d2d2d2d2d2d2d2d2d2d2d2d2d2d2d2d2d2d2d2d2d2d2d2d2d2d2d2d2d2d2d2d2d2d2d2d2d2d2d2d2d2d2d2d2d2d2d2d2d2d2d2d2d2d2d2d2d2d2d2d2d2d2d2d2d2d2d2d2d2d2d2d2d2d2d2d2d2d2d0a4973206974206861726420746f20736f6369616c697a65206265696e6720746869732061757469737469633f4c6574277320626520686f6e6573742c20796f75277265206b696e64206f6620616e206964696f744142434445464748494a4b4c4d4e4f505152535455565758595a6162636465666768696a6b6c6d6e6f707172737475767778797a303132333435363738392b2fa2646970667358221220dedfc6e73b23420e3fffea43762245c6169db0d7ddce7bfd004abad5b13b9fad64736f6c634300080a00333c2f746578743e3c74657874207472616e73666f726d3d226d6174726978283120302030203120313020313135292220636c6173733d227374322073743320737435223e3c7376672076657273696f6e3d22312e31222069643d224c617965725f312220786d6c6e733d22687474703a2f2f7777772e77332e6f72672f323030302f7376672220786d6c6e733a786c696e6b3d22687474703a2f2f7777772e77332e6f72672f313939392f786c696e6b2220783d223070782220793d22307078222076696577426f783d22302030203237302032373022207374796c653d22656e61626c652d6261636b67726f756e643a6e65772030203020323730203237303b2220786d6c3a73706163653d227072657365727665223e203c7374796c6520747970653d22746578742f637373223e202e7374307b66696c6c3a75726c282353564749445f315f293b7d202e7374317b66696c6c3a6e6f6e653b7d202e7374327b66696c6c3a234646464646463b7d202e7374337b666f6e742d66616d696c793a204d797269616450726f2d526567756c61723b7d202e7374347b666f6e742d73697a653a323170783b7d202e7374357b666f6e742d73697a653a313270783b7d203c2f7374796c653e203c6c696e6561724772616469656e742069643d2253564749445f315f22206772616469656e74556e6974733d227573657253706163654f6e557365222078313d222d31312e32333733222079313d223133342e39353933222078323d223238312e34363533222079323d223133342e3935393322206772616469656e745472616e73666f726d3d226d6174726978283120302030202d3120302032373029223e203c73746f7020206f66667365743d223022207374796c653d2273746f702d636f6c6f723a23343035444141222f3e203c73746f7020206f66667365743d223122207374796c653d2273746f702d636f6c6f723a23453333433936222f3e203c2f6c696e6561724772616469656e743e203c7265637420783d222d31312e322220793d222d31302e362220636c6173733d22737430222077696474683d223239322e3722206865696768743d223239312e33222f3e203c7265637420783d2235352e372220793d223138342e332220636c6173733d22737431222077696474683d2236322e3622206865696768743d2231302e31222f3e20203c74657874207472616e73666f726d3d226d61747269782831203020302031203130203430292220636c6173733d227374322073743320737434223e4d69647769742e696f3c2f746578743e203c74657874207472616e73666f726d3d226d61747269782831203020302031203130203830292220636c6173733d227374322073743320737434223e49512053636f72653a20",
  "linkReferences": {},
  "deployedLinkReferences": {}
}